:020000040000FA
:100000000C94D1000C94F9000C94F9000C94F900B4
:100010000C94F9000C94F9000C94F9000C94F9007C
:100020000C94F9000C94F9000C943E050C94A7056F
:100030000C94F9000C94F9000C94F9000C94F9005C
:100040000C94F9000C94F9000C94F9000C94F9004C
:100050000C94F9000C94F9000C94F9000C94E90745
:100060000C94F9000C94F9000C94F9000C94F9002C
:100070000C94F9000C94F9000C94F9000C94F9001C
:100080000C94F9000C94F9000C94F9000C94F9000C
:100090000C9433080C94F9000C94F9000C94F900BA
:1000A0000C94F9000C94F9000C94F9000000000085
:1000B000240027002A002D00300000000000250049
:1000C00028002B002E00310004040404040304055E
:1000D00002020202040302020202060606060606E5
:1000E00004040202020404040802011040804010CB
:1000F000204080408008020401804020100201104E
:100100008010204040200000000200090F00000382
:100110000401000C000000000000000000000000CE
:100120000000000000070605040100080A0B0C0D82
:1001300009080B000202020000090400000102028B
:100140000000052400100105240101010424020619
:100150000524060001070581031000400904010081
:10016000020A0000000705020240000007058302A2
:100170004000000403090412010002EF0201409A4A
:10018000230C8000010102030141646166727569FC
:1001900074004665617468657220333275340000FE
:1001A0004F0911241FBECFEFDAE0DEBFCDBF11E053
:1001B000A0E0B1E0E0E5F6E102C005900D92A833C1
:1001C000B107D9F722E0A8E3B1E001C01D92AE3734
:1001D000B207E1F710E0C1EDD0E004C02197FE01C5
:1001E0000E94200BC03DD107C9F70E9470090C94F2
:1001F000260B0C9400009091210281E09132E0F5F1
:100200008091FE018111FCCF82E08093FE0181E0AC
:100210008093FD018FEF8093FC011092FB0190937E
:10022000FA01A1E0B2E0EAEDF1E080E098132BC022
:100230001092D9018091D9018093D9018091D80180
:10024000813029F51092D8018091D9018093BB00AB
:1002500085EC8093BC008091FE018230E1F38091B7
:10026000FC018F3FB1F08091FC018032A1F08091C0
:10027000FC01803391F084E0109200021092210280
:100280001092FF0108952D9121938F5FCFCF85EEBE
:10029000E0CF80E0F1CF82E0EFCF83E0EDCF90912F
:1002A000D701911103C08FEF9FEF08954FB7F894D6
:1002B00092E09093E9009091F200292F30E012161D
:1002C000130614F421E030E0232B29F084E6809318
:1002D000D6018091F100992339F02091F20021118B
:1002E00003C02BE62093E8004FBF9923E1F290E092
:1002F00008952FB7F89483E08093E9009091E80087
:10030000892F807295FF04C09091F20080E4891BD0
:100310002FBF08958091CE0181110DC082E080939E
:10032000CA0184E08093CB011092CD011092CC01E0
:1003300081E08093CE018AEC91E00895CF93DF9322
:100340001F92CDB7DEB76983DC01ED91FC9102808D
:10035000F381E02D41E050E0BE016F5F7F4F0995D2
:100360000F90DF91CF91089583E08093E900809111
:10037000F200882319F08AE38093E80008950E9430
:10038000790190E00895FC018485958597FD05C06D
:100390002FEF3FEF3587248708950C944F01CF93BB
:1003A000DF93EC018C859D8597FF04C00E944F016F
:1003B0009D878C878C859D85DF91CF910895FC0169
:1003C0008485958597FD0BC09FB7F89482E0809354
:1003D000E9008091F2009FBF90E0019608959FB7D9
:1003E000F89482E08093E9008091F2009FBF90E052
:1003F00008954091C4015091C5012091C2013091EE
:10040000C30142175307B4F49091E8009570E1F3EB
:100410009091E80092FD19C08093F1008091C40191
:100420009091C50101968F739927892B19F48EEF4E
:100430008093E8008091C4019091C501019690934A
:10044000C5018093C40181E0089580E00895EF9292
:10045000FF920F931F93CF93DF93F82E192FE62E61
:10046000042F81E0860F880F0E94F90183E00E942B
:10047000F901CF2DD12FEC0EFD2EF11CCE15DF058D
:10048000B9F007FF13C0FE0184910E94F901182FF3
:1004900080E00E94F901812321968111EFCFDF9145
:1004A000CF911F910F91FF90EF9008958881EDCF2C
:1004B00081E0F5CFDF92EF92FF920F931F93CF93DE
:1004C000DF93D82E8A01EB017B01E40EF51ECE15D9
:1004D000DF0559F0D7FE12C0FE0184910E94F90198
:1004E00021968111F4CF0FEF1FEFC801DF91CF915B
:1004F0001F910F91FF90EF90DF9008958881EECFCC
:100500000F931F93CF93DF931F92CDB7DEB782E097
:10051000898342E450E061E371E080E80E945A027E
:100520000E948A01DC0112960D911C9101151105A2
:1005300089F0D801ED91FC910280F381E02DBE019C
:100540006F5F7F4FC801099597FD04C0F8010085D2
:100550001185ECCF89810F90DF91CF911F910F9181
:100560000895E091AE01F091AF01309729F010921B
:1005700000021092210209940895CF93DF93AC01F9
:10058000E091B001F091B1013097F1F09091A901A3
:100590008091A8019817C0F090E0292F30E026172D
:1005A000370754F4D901A45CBE4F240F351FE9016D
:1005B00028812C939F5FF1CF1092A9016093A8012D
:1005C000CB01DF91CF910994DF91CF910895282F2E
:1005D00030E0F901EA5FFE4F9491F901E951FF4FD4
:1005E000849128533F4FF9012491222309F430C00C
:1005F0009923E9F091509F30D0F4E92FF0E0ED5FBE
:10060000FC4F0C94200B31033503120329032D03F7
:1006100017031703170338033E03420346034C0333
:1006200017035003909180009F7790938000E22FF2
:10063000F0E0EE0FFF1FE654FF4FA591B4919FB776
:10064000F894EC91611132C080958E238C939FBFFA
:100650000895909180009F7DE8CF90918000977FD2
:10066000E4CF94B59F7794BDE2CF94B59F7DFBCF47
:10067000909190009F7790939000D9CF90919000A7
:100680009F7DF9CF90919000977FF5CF9091C0001A
:100690009F779093C000CBCF9091C0009F7DF9CF02
:1006A0009091C200977F9093C200C1CF8E2BCECF86
:1006B000CF93DF9390E0FC01E951FF4F24918853E1
:1006C0009F4FFC0184918823D1F090E0880F991FFF
:1006D000FC01E455FF4FA591B491FC01E654FF4F96
:1006E000C591D49161110EC09FB7F8948C91E22FFF
:1006F000E0958E238C932881E223E8839FBFDF91CE
:10070000CF9108958FB7F894EC91E22BEC938FBFC3
:10071000F6CF3FB7F8948091A4019091A501A091E4
:10072000A601B091A70126B5A89B05C02F3F19F0DF
:100730000196A11DB11D3FBFBA2FA92F982F882761
:10074000BC01CD01620F711D811D911D43E0660F3B
:10075000771F881F991F4A95D1F708958F929F920E
:10076000AF92BF92CF92DF92EF92FF924B015C016A
:100770000E9489036B017C010E9489036C197D0929
:100780008E099F09683E734081059105A8F321E019
:10079000821A9108A108B10888EEC80E83E0D81E1D
:1007A000E11CF11C81149104A104B10429F7FF900C
:1007B000EF90DF90CF90BF90AF909F908F90089573
:1007C0008F929F92AF92BF92CF92DF92EF92FF9261
:1007D0000F931F93CF93DF936C017B018A0180916C
:1007E0000B01882309F45BC08091D701882309F4A9
:1007F00056C08091C90180FF05C08091E0008260F1
:100800008093E000E801B12C8AEFA82E93E0892EB6
:100810002AE3922E209711F4BB20D9F10E9479018E
:1008200081110AC0AA94AA20D1F161E070E080E0B1
:1008300090E00E94AE03EECF8C171D0611F00CF075
:100840008C2F9FB7F8948092E9002091E80025FD55
:1008500002C09FBFDFCF282F30E0C21BD30BF701B0
:10086000815020F041914093F100FACFE20EF31E47
:10087000BB2021F09092E800B12CEBCF8091E800F2
:1008800085FDE7CF9092E800BB24B394209709F34D
:10089000F3CF84E68093C801101611063CF081E086
:1008A00090E0F6019383828310E000E0C801DF91BD
:1008B000CF911F910F91FF90EF90DF90CF90BF905D
:1008C000AF909F908F90089585ED8093BC008091AC
:1008D000BC0084FDFCCF1092FE010895613298F4B3
:1008E0002091FE01243089F460937C01282FACE52F
:1008F000B1E0FC018E2F821B861710F080E0089576
:1009000081918D93F7CF81E0089582E00895089555
:10091000E091A9018091A801E81730F4F0E0E45CCF
:10092000FE4F808190E008958FEF9FEF08959091A2
:10093000A9018091A8012FEF3FEF981748F4E92F04
:10094000F0E0E45CFE4F208130E09F5F9093A901CE
:10095000C90108958091A8019091A901891B990B63
:100960000895CF92DF92EF92FF920F931F93CF9350
:10097000DF937C01CB018A012091FF01222389F0C2
:10098000EB016B01C40ED51ECC15DD0569F0699134
:10099000D701ED91FC910190F081E02DC7010995FF
:1009A000F3CF642F0E946E04C801DF91CF911F9195
:1009B0000F91FF90EF90DF90CF900895CF93DF934A
:1009C0001F92CDB7DEB769832091FF012223F9F092
:1009D00020912102203258F021E030E0FC013383E5
:1009E000228390E080E00F90DF91CF910895809175
:1009F0000002E82FF0E0EF5FFD4F998190838F5F59
:100A0000809300028093210281E090E0ECCF61E0CE
:100A1000CE0101960E946E04F7CF90E080E0089529
:100A200021E02093B20190933B0180933A0101971A
:100A300051F482E792E00E949704909339018093E9
:100A400038010E94FB0080913801909139010A978A
:100A500034F089E090E09093390180933801089553
:100A60008091BD018111FECF42E050E064EB71E066
:100A700082E792E00E94B1040C94FB001F920F9257
:100A80000FB60F9211248F939F938091E100909164
:100A9000E100937F9093E10083FF0FC01092E90083
:100AA00091E09093EB001092EC0092E39093ED00B4
:100AB0001092D70198E09093F00082FF1CC093E061
:100AC0009093E9009091F200992319F09AE39093A2
:100AD000E8009091C801992329F09091C8019150A4
:100AE0009093C8019091D601992329F09091D60155
:100AF00091509093D60184FF18C08091E2008E7EC1
:100B000081608093E2008091E1008F7E8093E1001C
:100B10008091C9018E7E80618093C9019F918F91E0
:100B20000F900FBE0F901F90189580FFF7CF809108
:100B3000E2008E7E80618093E2008091E1008E7EF3
:100B40008093E1008091C9018E7E8160E5CF1F9284
:100B50000F920FB60F921124CF92DF92EF92FF9275
:100B60000F931F932F933F934F935F936F937F93B5
:100B70008F939F93AF93BF93EF93FF93CF93DF93A5
:100B8000CDB7DEB76C97DEBFCDBF1092E900809184
:100B9000E80083FF2FC089E0FE017596EE2EDF2E60
:100BA000815029F09091F10090833196F9CF84E63D
:100BB0008093D60182EF8093E8008D8987FF39C04A
:100BC0009091E80090FFFCCF982F907609F033C108
:100BD0009E894F89588D2F89F88C911131C08038AA
:100BE00061F58091C7018093F1001092F1008EEFC2
:100BF0008093E8006C960FB6F894DEBF0FBECDBFB1
:100C0000DF91CF91FF91EF91BF91AF919F918F9124
:100C10007F916F915F914F913F912F911F910F9114
:100C2000FF90EF90DF90CF900F900FBE0F901F902E
:100C300018959EEF9093E800C7CF1092F100D5CFA2
:100C4000913059F48111D3CF4130510581F6809113
:100C5000C7018D7F8093C701CACF933049F48111BA
:100C6000C6CF4130510519F68091C7018260F2CF9D
:100C7000953041F48091E80080FFFCCF20682093FC
:100C8000E300B5CF963009F0A8C00B8D1C8D22E093
:100C90001092E9001092C5011092C401F2122EC008
:100CA0001092C3011092C2010E9480021F8299E03B
:100CB0009983FA8291E09E8390EA98879AEF9987C8
:100CC0002091C4013091C501275F3F4F3C832B83A6
:100CD0008D831092E9001092C5011092C401109307
:100CE000C3010093C20149E050E0BE016F5F7F4F36
:100CF00080E00E945A020E94800279CF1093C301C3
:100D00000093C2010E948A01DC0112960D911C9190
:100D10000115110509F457C1D801ED91FC9104802A
:100D2000F581E02D6E2D7D2DC8010995009709F004
:100D300045C1F80100851185EBCFF3E0FF120EC02D
:100D40008F89882309F440C0823061F440E86CE068
:100D500082E991E00E942702811149CF81E28093CC
:100D6000EB0048CF813029F440E868E089E891E061
:100D7000F1CF833099F70E948A01DC011296ED9041
:100D8000FC908E010F5F1F4F6801E114F10479F0B0
:100D9000D701ED91FC910680F781E02DB801C701E4
:100DA0000995080F111DF701E084F184EECFD801F9
:100DB0001C92F60101900020E9F73197BF016C19F0
:100DC0007D0940E0C601C6CF63E771E0FB014491B5
:100DD00050E080E80E945A020ACF973009F4BECF53
:100DE000983021F481E08093F10001CF993009F02F
:100DF000FECE837009F0B2CFEDE0F1E081E031E0AA
:100E000096E32191222371F08093E9003093EB0067
:100E1000DF0111972C912093EC009093ED008F5FF0
:100E2000873079F78EE78093EA001092EA008F8985
:100E30008093D701DCCE8B8D9C8D1092E9001092AF
:100E4000C5011092C4019093C3018093C201898DA2
:100E500081119AC08E899D89913A49F4813209F0B5
:100E60007DCF47E050E064E071E080E0B3CF9132A5
:100E700009F074CF833269F48F89988DB0E0A0E0D7
:100E80008093000190930101A0930201B0930301AC
:100E9000AECE8032A9F48091E80082FFFCCF88E0DA
:100EA000E4E0F1E0815029F09091F10090833196D7
:100EB000F9CF84E68093D6018BEF8093E80097CE3C
:100EC000823209F094CE8F8980930B01EEEFFFE719
:100ED000859194918B3F9C4D51F1E0E0F8E0809139
:100EE000040190910501A0910601B0910701803B9A
:100EF0009440A105B105F1F480910B0180FD1AC069
:100F0000EE3F8AE0F80789F587E797E791838083CA
:100F1000809160008093C60188E19BE00FB6F89451
:100F2000A895809360000FBE9093600060CEEEEFB6
:100F3000FAE0D5CF808191818737974709F057CE66
:100F4000A895809160008861809360008091C601BF
:100F500080936000EE3F2AE0F20789F08091FE0A5C
:100F60009091FF0A9183808342CE8081918187375F
:100F7000980751F29093FF0A8093FE0AC5CF109212
:100F8000FF0A1092FE0A33CE0E948A01DC011296FB
:100F90000D911C910115110509F4E0CED801ED91D8
:100FA000FC910190F081E02D6E2D7D2DC8010995F9
:100FB00081111DCEF80100851185ECCF1816190698
:100FC0000CF415CECBCEF1E0FF12B7CE67E771E09F
:100FD000FDCE1F920F920FB60F9211242F933F93C5
:100FE0008F939F93AF93BF938091A0019091A101A4
:100FF000A091A201B091A30130919F0126E0230F9F
:101000002D3758F50296A11DB11D20939F018093A5
:10101000A0019093A101A093A201B093A30180919C
:10102000A4019091A501A091A601B091A7010196FC
:10103000A11DB11D8093A4019093A501A093A601C9
:10104000B093A701BF91AF919F918F913F912F9145
:101050000F900FBE0F901F90189529E8230F03964D
:10106000A11DB11DD2CF1F920F920FB60F92112466
:101070002F933F934F935F936F937F938F939F93A0
:10108000AF93BF93EF93FF938091B900887F803631
:1010900009F44AC0F0F5883209F4A7C018F5803188
:1010A00009F49BC0B8F4882309F4F6C0883009F429
:1010B00094C0FF91EF91BF91AF919F918F917F91DC
:1010C0006F915F914F913F912F910F900FBE0F90B5
:1010D0001F901895883109F488C0803251F78093A9
:1010E000FC0114C0803409F49DC040F48033B9F38E
:1010F0008833F9F68093FC0185ECB0C0803509F4A3
:1011000085C0883509F496C0883499F60E94640435
:10111000D0CF883909F48CC038F5883729F050F4DD
:10112000883611F0803729F683E08093FE01109213
:101130009E0157C0883809F47BC0803919F0803887
:1011400009F0B7CF80919E01803208F071C0E09124
:101150009E0181E08E0F80939E018091BB00F0E0A4
:10116000E258FE4F80833DC0803B39F0E0F4803A86
:1011700009F479C0883A09F09CCF84E08093FE019D
:1011800010927D0110927C01E091AC01F091AD01D3
:10119000099580917C0181110FC081E080937C01D1
:1011A00010925C0109C0803C09F4A6CF883C09F488
:1011B000A3CF883B09F07DCFE0917D0181E08E0FC8
:1011C00080937D01F0E0E45AFE4F80818093BB0064
:1011D00090917D0180917C0129C08091D9018093FB
:1011E000BB0085EC8093BC0064CF9091FB018091A3
:1011F000FA01981758F5E091FB0181E08E0F80937A
:10120000FB01F0E0E652FE4F8081E9CFE091FB0167
:1012100081E08E0F8093FB018091BB00F0E0E652ED
:10122000FE4F80839091FB018091FA019817C8F2DC
:1012300085E8D8CFE091FB0181E08E0F8093FB0120
:101240008091BB00F0E0E652FE4F80838091FD016B
:1012500081115CCF81E08093D80184EA8093BC0047
:101260001092FE0126CF80919E01803230F4E091F1
:101270009E01F0E0E258FE4F10820E9464046091EB
:101280009E0170E0E091AA01F091AB018EE791E040
:10129000099510929E0130CF1092FC0137CFE2E207
:1012A000F2E01382128288EE93E0A0E0B0E0848343
:1012B0009583A683B78327E131E0318320832FEF25
:1012C0003FEF35872487E2E7F2E0138212828483BE
:1012D0009583A683B78389E291E091838083089503
:1012E000789484B5826084BD84B5816084BD85B501
:1012F000826085BD85B5816085BD80916E0081600D
:1013000080936E00109281008091810082608093B2
:1013100081008091810081608093810080918000B4
:101320008160809380008091910082608093910021
:101330008091910081608093910080919000816004
:10134000809390008091C10084608093C10080915F
:10135000C10082608093C1008091C1008160809350
:10136000C1008091C30081608093C3008091C00060
:1013700082608093C0008091C20081608093C2002F
:1013800080917A00846080937A0080917A008260F4
:1013900080937A0080917A008E7F80937A0080918A
:1013A0007A00806880937A001092D7011092C7016A
:1013B0001092C9018091D70081608093D70080EAA4
:1013C0008093D80089B58F7E89BD89B5826089BD3B
:1013D00009B400FEFDCF61E070E080E090E00E9483
:1013E000AE038091D8008F7C80618093D80080917B
:1013F000E000807F8093E0008091E1008E7E80930A
:10140000E1008DE08093E20061E089E00E945803F2
:1014100061E08AE00E94580360E083E10E94580383
:1014200082E18093BA0081EB92E09093AD018093CA
:10143000AC018DEB92E09093AB018093AA011092E6
:10144000A9011092A801109200021092210210929C
:10145000FE0181E08093FD011092D80161E082E0FD
:101460000E94E70261E083E00E94E7028091B900F8
:101470008E7F8093B9008091B9008D7F8093B900F1
:1014800080E28093B80085E48093BC0080E395E01F
:101490009093AF018093AE0180E195E09093B1010C
:1014A0008093B00182E08093B301C5E0D0E060E0BA
:1014B00089E00E94E70260E08AE00E94E70262E3BE
:1014C00070E080E090E00E94AE0361E089E00E945D
:1014D000E70261E08AE00E94E70262E370E080E0F8
:1014E00090E00E94AE03219711F788ECC82ED12C12
:1014F000E12CF12C06E211E0C0E0D0E0BB24B39473
:101500009DECA92E2BEA922E6091BE017091BF0135
:101510008091C0019091C101A70196010E94FE0A2D
:10152000672B682B692B29F5B092BD01F8018491D6
:1015300020917B00982F990F990F90722F7D922BFD
:1015400090937B008770806480937C0080917A0008
:10155000806480937A0080917A0086FDFCCF809130
:10156000780090917900A092B4019092B501109208
:10157000BD018091B201882369F11092BE011092E1
:10158000BF011092C0011092C1011092B20160E03F
:101590008AE00E94E70261E070E080E090E00E9453
:1015A000AE038091BE019091BF01A091C001B091A6
:1015B000C1010196A11DB11D8093BE019093BF0191
:1015C000A093C001B093C101209709F49DCF0E9460
:1015D00000009ACF8091BE019091BF01A091C001FF
:1015E000B091C10184369105A105B105A1F661E074
:1015F0008AE00E94E70261E089E0CBCFA1E21A2EE7
:10160000AA1BBB1BFD010DC0AA1FBB1FEE1FFF1FA6
:10161000A217B307E407F50720F0A21BB30BE40BF6
:10162000F50B661F771F881F991F1A9469F760953D
:101630007095809590959B01AC01BD01CF010895F7
:10164000EE0FFF1F0590F491E02D0994F894FFCF61
:10165000FFFFFFFF00E100000000000000C18081EB
:10166000000000000000009E01E003BF01B401DFA4
:1016700001C301CF0100000000DE04B1040D0587A5
:0816800004AA04970488040089
:1070000055C000006EC000006CC000006AC00000E7
:1070100068C0000066C0000064C0000062C00000DC
:1070200060C000005EC00000DAC400005AC000006A
:1070300058C0000056C0000054C0000052C00000FC
:1070400050C0000076C000004CC000004AC00000E4
:1070500048C0000046C0000044C0000042C000001C
:1070600040C000003EC000003CC000003AC000002C
:1070700038C0000036C0000034C0000032C000003C
:1070800030C000002EC000002CC000002AC000004C
:1070900028C0000026C0000024C0000022C000005C
:1070A00020C000001EC000001CC0000011241FBE34
:1070B000CFEFDAE0DEBFCDBF11E0A0E0B1E0EEEF50
:1070C000FEE702C005900D92AA3CB107D9F711E086
:1070D000AAECB1E001C01D92A03EB107E1F781D357
:1070E0000CC78ECFF89410926F001092810010920E
:1070F00085001092840081E085BF15BE47980C94EE
:10710000000008952091D4013091D5012F5F3F4FA9
:107110003093D5012093D401932F37FF03C08EEF16
:10712000831B982F990F921710F447980895479A48
:1071300008951F920F920FB60F9211242F938F93E1
:107140009F93EF93FF93109285001092840080919B
:10715000CA019091CB01009729F001979093CB0140
:107160008093CA018091CC019091CD01009729F0C4
:1071700001979093CD018093CC01E0E0F0E0859100
:1071800094918F5F9F4F49F08091CE019091CF01F4
:1071900001969093CF018093CE01FF91EF919F9143
:1071A0008F912F910F900FBE0F901F90189584E034
:1071B0008093E9000DC08091E8008B778093E80010
:1071C00003C08EB3882351F08091E80082FFF9CF8D
:1071D0008091E80085FFEFCF8091F1000895982F0E
:1071E00083E08093E9008091E80085FD0DC08091E7
:1071F000E8008E778093E80003C08EB3882361F0A7
:107200008091E80080FFF9CF9093F10084E690E050
:107210009093CB018093CA0108954F925F926F9231
:107220007F928F929F92AF92BF92CF92DF92EF9216
:10723000FF920F931F93CF93DF9384E08093E90035
:107240008091E80082FF56C284E690E09093CD01E1
:107250008093CC01ACDF182F853481F48CE195E26A
:107260009093CF018093CE0107B600FCFDCFF99932
:10727000FECF81E180935700E89503C0843519F46F
:1072800096DF8DE00DC28C34E1F38035D1F3843785
:1072900021F484E4A4DF80E003C2813611F489E59F
:1072A000FFC18134B1F483DF182F81DF90E0880FB4
:1072B000991FAA2797FDA095BA2F312F330F20E0F1
:1072C000442737FD4095542F822B932BA42BB52BAD
:1072D000B8C1803711F483E5E3C1833549F4C0E0D8
:1072E000D1E089917CDF21E0C730D207D1F7D9C145
:1072F000863521F481E373DF80E3D2C1833731F433
:1073000087E86DDF85E96BDF8EE1CAC18536B9F4A8
:10731000E0E0F0E093E085E090935700E89507B651
:1073200000FCFDCF80935700E89507B600FCFDCF29
:10733000E058FF4FA0E7E030FA0771F7A2CF82379D
:1073400039F4E1E0F0E089E0809357008491A8C12E
:10735000863439F4E0E0F0E089E0809357008491CE
:107360009FC18E3439F4E3E0F0E089E08093570068
:10737000849196C1813539F4E2E0F0E089E08093B0
:10738000570084918DC1823631F489E528DF80E091
:1073900026DF80E885C1823419F0873609F0E5C020
:1073A0001092CF011092CE0102DF082F00DFF82EDD
:1073B000FEDE682E8554823008F071C1902F80E087
:1073C000CF2DD0E0C82BD92B10926F00173609F0C3
:1073D0004BC081E180935700E895DD24CC24C39411
:1073E0003FC0E090D001F090D1010091D201109106
:1073F000D301B6E46B16D9F4ED2DF0E0EE29FF29A8
:10740000E4918E2FECDEDD2081F082E090E0A0E0C0
:10741000B0E0E80EF91E0A1F1B1FE092D001F092A7
:10742000D1010093D2011093D301DC2418C0D801FC
:10743000C701B695A7959795879549D5D0DE82E087
:1074400090E0A0E0B0E0E80EF91E0A1F1B1FE092DA
:10745000D001F092D1010093D2011093D301219772
:10746000209709F0BECF7DC08090D0019090D101CF
:10747000A090D201B090D30196E4691609F05DC0E6
:1074800083E0F40180935700E89507B600FCFDCF38
:1074900054C0F6E46F1661F5772031F1E090D00129
:1074A000F090D1010091D2011091D30180DED82E4D
:1074B000CC24852D90E08C299D29F7010C01409268
:1074C0005700E895112482E090E0A0E0B0E0E80EDB
:1074D000F91E0A1F1B1FE092D001F092D101009308
:1074E000D2011093D30102C062DE582E742423C04F
:1074F000E090D001F090D1010091D2011091D30120
:1075000016950795F794E79452DE682FC701E7D4E4
:107510008091D0019091D101A091D201B091D3017D
:107520000296A11DB11D8093D0019093D101A0932B
:10753000D201B093D301219704C055247724442469
:107540004394209709F0A5CF96E4691641F485E0AD
:10755000F40180935700E89507B600FCFDCF8DE05D
:107560003EDE82E080936F009CC0833471F4009112
:10757000D0011091D1011BDE90E021E0F8010C0157
:1075800020935700E89511247CCE833619F5E090BE
:10759000D001F090D1010091D2011091D30107DE0A
:1075A000F701E16090E021E00C0120935700E8959D
:1075B000112482E090E0A0E0B0E0E80EF91E0A1F7E
:1075C0001B1FE092D001F092D1010093D2011093E1
:1075D000D30157CE8D3661F4E091D001F091D10105
:1075E00085E080935700E89507B600FCFDCF49CEB3
:1075F000823551F4E091D001F091D10105911491BF
:10760000812FEDDD802F4CC0843421F5E090D00136
:10761000F090D1010091D2011091D30116950795F8
:10762000F794E794C4DD682FC70159D48091D00145
:107630009091D101A091D201B091D3010296A11DE8
:10764000B11D8093D0019093D101A093D201B0934A
:10765000D30117CE843609F5E090D001F090D10126
:107660000091D2011091D301D801C701B695A79519
:10767000979587952CD4B3DD82E090E0A0E0B0E050
:10768000E80EF91E0A1F1B1FE092D001F092D101F3
:107690000093D2011093D30104C08B3111F08FE31A
:1076A0009EDD83E08093E9009091E8008091E800FE
:1076B0008E778093E80095FF04C010C08EB38823B6
:1076C000C9F08091E80080FFF9CF8091E8008E77C3
:1076D0008093E80003C08EB3882361F08091E800B6
:1076E00080FFF9CF84E08093E9008091E8008B77F8
:1076F0008093E800DF91CF911F910F91FF90EF9061
:10770000DF90CF90BF90AF909F908F907F906F90C1
:107710005F904F9008959091D801892F8F77813293
:1077200049F58091D9018032A1F0813219F5913A61
:1077300009F58091E800877F8093E8008DE091E073
:1077400067E070E0FBD18091E8008B778093E800E0
:107750000895913279F48091E800877F8093E80062
:107760008DE091E067E070E04DD28091E8008E7787
:107770008093E800089582E061EC42E0A7D083E0C6
:1077800061E842E1A3D084E060E842E19FC084B7B1
:10779000877F84BF88E10FB6F894809360001092D1
:1077A00060000FBE20E880E090E00FB6F8942093D0
:1077B0006100809361000FBE81E085BF92E095BFBC
:1077C0003F9AE1E6F0E0208310824798109289000A
:1077D0008DE78093880090936F0083E08093810011
:1077E000E6C04091000850910108109201081092E3
:1077F000000824B714BE88E10FB6F89480936000A7
:10780000109260000FBEE0E0F0E0859194918F5FF0
:107810009F4F71F020FD0BC021FD0AC0283041F4BC
:107820008091090190910A014817590709F05ADC23
:10783000AEDF78941092CF011092CE010CC0EDDC37
:1078400034D38091CE019091CF018151974210F0B5
:107850001092140157DC80911401882381F78091E4
:10786000E00081608093E0003DDC80E090E00895DE
:10787000FA01923049F0933061F09130F9F485E1EA
:1078800091E022E130E01EC087E291E02EE330E09B
:1078900019C0882329F485E691E024E030E012C085
:1078A000813029F489E691E022E230E00BC0823099
:1078B00029F487E991E028E130E004C080E090E01D
:1078C00020E030E091838083C90108958093E9002E
:1078D0008091EB0081608093EB001092ED0060934B
:1078E000EC004093ED008091EE00881F8827881FF0
:1078F00008958091D80188238CF403C08EB3882327
:10790000B1F08091E80082FFF9CF8091E8008B7799
:107910008093E80008958EB3882349F08091E800B1
:1079200080FFF9CF8091E8008E778093E80008957A
:10793000EF92FF920F931F9345D04CD008ED10E0CB
:10794000F80180818F778083808180688083808147
:107950008F7D808319BC1EBA1092D60180EEE82E6E
:10796000F12CF70180818B7F8083F8018081816019
:10797000808380E060E042E0A9DFE1EEF0E080811A
:107980008E7F8083E2EEF0E0808181608083808161
:1079900088608083F70180818E7F8083F8018081F9
:1079A000806180831F910F91FF90EF900895E7ED24
:1079B000F0E08081816080838AE482BF81E08093EF
:1079C000D701B6CFE8EDF0E080818E7F8083109202
:1079D000E20008951092DA001092E10008951F92DB
:1079E0000F920FB60F9211242F933F934F935F93F3
:1079F0006F937F938F939F93AF93BF93EF93FF9377
:107A00008091DA0080FF1AC08091D80080FF16C0F4
:107A10008091DA008E7F8093DA008091D90080FF18
:107A20000AC019BC82E089BD09B400FEFDCF81E027
:107A30008EBB3AD203C019BC1EBA36D28091E10087
:107A400080FF17C08091E20080FF13C08091E200A8
:107A50008E7F8093E2008091E20080618093E2005B
:107A60008091D80080628093D80019BC85E08EBBDD
:107A70001BD28091E10084FF2BC08091E20084FF43
:107A800027C019BC82E089BD09B400FEFDCF8091FA
:107A9000D8008F7D8093D8008091E1008F7E809305
:107AA000E1008091E2008F7E8093E2008091E2000D
:107AB00081608093E2008091D601882331F4809127
:107AC000E30087FD02C081E001C084E08EBBECD101
:107AD0008091E10083FF21C08091E20083FF1DC0FF
:107AE0008091E100877F8093E10082E08EBB10925D
:107AF000D6018091E1008E7F8093E1008091E200C9
:107B00008E7F8093E2008091E20080618093E200AA
:107B100080E060E042E0DADEC7D1FF91EF91BF91F3
:107B2000AF919F918F917F916F915F914F913F9115
:107B30002F910F900FBE0F901F9018959C014091B0
:107B4000DE015091DF014617570718F4F90190E064
:107B500044C06115710511F0AB01F8CF8091E800C8
:107B60008E778093E80040E050E0F0CF8EB388231A
:107B700009F444C0853009F443C08091E80083FFD4
:107B800002C081E008958091E80082FD31C08091BB
:107B9000E80080FF22C08091F3009091F200782FDE
:107BA00060E0292F30E0262B372B07C0819180938E
:107BB000F100415050402F5F3F4F4115510519F0E2
:107BC0002830310598F390E02830310509F491E030
:107BD0008091E8008E778093E8004115510531F6D9
:107BE000992321F605C08EB3882341F0853041F0FA
:107BF0008091E80082FFF7CF80E0089582E0089549
:107C000083E008959C016115710529F48091E800D5
:107C10008B778093E800F90126C08EB3882391F119
:107C2000853091F18091E80083FF02C081E00895E2
:107C30008091E80082FFF1CF06C08091F10081932E
:107C40006150704059F02091F3008091F200322F82
:107C500020E090E0822B932B892B79F78091E8002C
:107C60008B778093E80061157105B9F605C08EB376
:107C7000882341F0853041F08091E80080FFF7CF04
:107C800080E0089582E0089583E008950F931F93A4
:107C9000DF93CF9300D0CDB7DEB7E8EDF1E0809170
:107CA000F100819381E0E03EF807C9F734DD80916F
:107CB000E80083FFE4C08091D8019091D90195300C
:107CC00009F46DC0963040F4913081F1913070F03C
:107CD000933009F0D4C02AC0983009F4A3C0993079
:107CE00009F4B2C0963009F0CAC07CC0803809F4EB
:107CF000C6C0823809F0C3C08091DC0187708093D0
:107D0000E9008091EB001092E9002091E800277FC4
:107D10002093E80090E025E0969587952A95E1F775
:107D200081708093F1001092F10087C0882319F0D0
:107D3000823009F0A4C08F71823009F0A0C0809118
:107D4000DA01882331F52091DC01277009F497C00E
:107D50002093E9008091EB0080FF1BC0933021F459
:107D60008091EB00806213C08091EB008061809372
:107D7000EB0081E090E002C0880F991F2A95E2F79E
:107D80008093EA001092EA008091EB008860809373
:107D9000EB001092E9008091E800877F51C08823B2
:107DA00009F06DC01091DA011F770FB7F894809138
:107DB000E800877F8093E8009CDD8091E80080FFE9
:107DC000FCCF8091E3008078812B8093E300806872
:107DD0008093E300112311F482E001C083E08EBBA5
:107DE0000FBF4DC08058823008F049C08091DA0141
:107DF0009091DB016091DC01AE014F5F5F4F38DD98
:107E0000BC01009709F43BC08091E800877F809314
:107E1000E80089819A8192DE8091E8008B778093D7
:107E2000E8002DC0803859F58091E800877F809365
:107E3000E8008091D6018093F1008091E8008E7770
:107E40008093E80056DD1BC08823C9F49091DA01C5
:107E50009230A8F48091E800877F8093E8009093A7
:107E6000D60147DD8091D601882331F48091E3006B
:107E700087FD02C081E001C084E08EBB7CDC809184
:107E8000E80083FF0AC08091EB0080628093EB00E2
:107E90008091E800877F8093E8000F900F90CF914A
:107EA000DF911F910F91089508951F938EB388233A
:107EB00061F01091E9001092E9008091E80083FFE1
:107EC00001C0E4DE17701093E9001F910895F9993D
:107ED000FECF92BD81BDF89A992780B50895262FCF
:107EE000F999FECF1FBA92BD81BD20BD0FB6F8949F
:107EF000FA9AF99A0FBE01960895F894FFCF43417C
:107F0000544552494E4100777700080000000000B8
:107F100000080112011001020000089A230C000160
:107F2000000201000109023E000201008032090442
:107F300000000102020100052400100104240204D3
:107F40000524060001070582030800FF090401005B
:107F5000020A000000070504021000010705830261
:107F6000100001040309042203410064006100665B
:107F70000072007500690074002000460065006111
:107F80000074006800650072002000330032007544
:107F900000340000001803410064006100660072B4
:107FA00000750069007400200049006E00640075CF
:107FB0000073007400720069006500730020004CBB
:087FC000004C0043000000002A
:00000001FF
